S00E0000752D626F6F742E73726563C0
S31581700000B80000EA14F09FE514F09FE514F09FE5BF
S3158170001014F09FE514F09FE514F09FE514F09FE5C9
S3158170002060007081C0007081200170818001708153
S31581700030E001708140027081A0027081EFBEADDEF9
S31581700040DEC0AD0B0000A0E10000A0E10000A0E1E0
S315817000500000A0E10000A0E10000A0E10000A0E1A5
S3158170006028D01FE500E08DE500E04FE104E08DE5E5
S3158170007013D0A0E30DF069E10FE0A0E10EF0B0E1DD
S3158170008048D04DE2FF1F8DE850201FE50C0092E8A5
S3158170009048008DE234508DE20E10A0E10F0085E8A4
S315817000A00D00A0E19BAB00EB0000A0E10000A0E198
S315817000B00000A0E10000A0E10000A0E10000A0E145
S315817000C088D01FE500E08DE500E04FE104E08DE525
S315817000D013D0A0E30DF069E10FE0A0E10EF0B0E17D
S315817000E048D04DE2FF1F8DE8B0201FE50C0092E8E5
S315817000F048008DE234508DE20E10A0E10F0085E844
S315817001000D00A0E187AB00EB0000A0E10000A0E14B
S315817001100000A0E10000A0E10000A0E10000A0E1E4
S31581700120E8D01FE500E08DE500E04FE104E08DE564
S3158170013013D0A0E30DF069E10FE0A0E10EF0B0E11C
S3158170014048D04DE2FF1F8DE810211FE50C0092E823
S3158170015048008DE234508DE20E10A0E10F0085E8E3
S315817001600D00A0E153AB00EB0000A0E10000A0E11F
S315817001700000A0E10000A0E10000A0E10000A0E184
S3158170018048D11FE500E08DE500E04FE104E08DE5A3
S3158170019013D0A0E30DF069E10FE0A0E10EF0B0E1BC
S315817001A048D04DE2FF1F8DE870211FE50C0092E863
S315817001B048008DE234508DE20E10A0E10F0085E883
S315817001C00D00A0E12BAB00EB0000A0E10000A0E1E7
S315817001D00000A0E10000A0E10000A0E10000A0E124
S315817001E0A8D11FE500E08DE500E04FE104E08DE5E3
S315817001F013D0A0E30DF069E10FE0A0E10EF0B0E15C
S3158170020048D04DE2FF1F8DE8D0211FE50C0092E8A2
S3158170021048008DE234508DE20E10A0E10F0085E822
S315817002200D00A0E15FAB00EB0000A0E10000A0E152
S315817002300000A0E10000A0E10000A0E10000A0E1C3
S3158170024008D21FE500E08DE500E04FE104E08DE521
S3158170025013D0A0E30DF069E10FE0A0E10EF0B0E1FB
S3158170026048D04DE2FF1F8DE830221FE50C0092E8E1
S3158170027048008DE234508DE20E10A0E10F0085E8C2
S315817002800D00A0E143AB00EB0000A0E10000A0E10E
S315817002900000A0E10000A0E10000A0E10000A0E163
S315817002A068D21FE500E08DE500E04FE104E08DE561
S315817002B013D0A0E30DF069E10FE0A0E10EF0B0E19B
S315817002C048D04DE2FF1F8DE890221FE50C0092E821
S315817002D048008DE234508DE20E10A0E10F0085E862
S315817002E00D00A0E147AB00EB160000EA00000FE1BC
S315817002F01F00C0E3D30080E300F029E1010000EB29
S315817003006E0000EB1EFF2FE10000A0E37AFF17EE6F
S31581700310FDFFFF1A170F08EE150F07EE100F11EE7E
S31581700320030CC0E38700C0E3020AC0E3020080E3E6
S31581700330010A80E3100F01EE0EC0A0E1530000EBBD
S315817003400CE0A0E10EF0A0E1E7FFFFEA10402DE995
S31581700350ECAA00EB3E0300EB5B0300EB150000EBB0
S315817003600000A0E3170F07EE1080BDE80030A0E310
S315817003707EFF17EEFDFFFF1A9A3F07EE1EFF2FE1F4
S3158170038070402DE90040A0E10150A0E10C0300EB23
S31581700390000050E37080BD08050054E10200003A08
S315817003A00030A0E39A3F07EE7080BDE83E4F07EEBE
S315817003B0204084E2F7FFFFEA1EFF2FE180B44F46AB
S315817003C080B40122044B52425A61083200201A616C
S315817003D004BC914680BC7047000CC201104B30B58D
S315817003E0CE4600B598690F49C0432AF035FD494616
S315817003F04B46B431B0330A68824209D80A681C68A0
S31581700400821A12191A600860186804BC914630BD48
S315817004100C68054D1A6852191218121BF2E7C046FC
S31581700420000CC201C05D00000CBB020030B5CE4627
S3158170043000B50400FFF7D2FF001B04BC914630BDA6
S315817004400C49182370B5CE4606005E4300B58B699C
S315817004500125DB43002E02DC04BC914670BD8A699E
S31581700460D243934203D29B1A9E191300F2E7AC1AB8
S31581700470E318F9E7000CC2014B4608B5FFF7AEFFEA
S31581700480002104BC914600BDFA20800070470000AF
S3158170049018D09FE507D0CDE3C8D04DE207D0CDE324
S315817004A00D90A0E100502DE9C6AA00EB0090BDE841
S315817004B0307F000000000000000000000000000096
S315817004C078009FE50700C0E300D0A0E1D1AA00EBD8
S315817004D000D0A0E10090A0E152AA00EB0000A0E359
S315817004E058AA00EB400099E50700C0E300D0A0E16F
S315817004F0009099E5C89049E20CE08FE2440099E555
S3158170050000E08EE0300099E5210100EA160100EBEA
S315817005107BFFFFEB28009FE528309FE50010A0E365
S31581700520002053E00D0000EB86AA00EB31AA00EBA8
S315817005300900A0E1301099E50CE09FE51EFF2FE1DF
S31581700540307F0000D0CB73811C7D7781B5A9708196
S3158170055000000000000000000000000000000000A4
S31581700560033010E200C0A0E11E00001A011481E17F
S31581700570011881E10130A0E1100052E30F0000BA49
S3158170058000412DE90180A0E101E0A0E1402052E225
S315817005900A41ACA80A41ACA80A41ACA80A41ACA8E8
S315817005A0F9FFFFCA0081BD08200012E30A41AC1829
S315817005B00A41AC18100012E30A41AC180041BDE83B
S315817005C0080012E30A00AC18040012E304108C14BC
S315817005D0020012E30110CC140110CC14010012E355
S315817005E00110CC141EFF2FE1042052E2F7FFFFBAEF
S315817005F0020053E30110CCB40110CCD40110CCE4C9
S31581700600032082E0D8FFFFEA010050E10EF0A001DD
S3158170061011402DE9042052E22B0000BA03C010E28A
S3158170062000F0D1F53000001A03C011E23A00001AC9
S315817006301C2052E2E0012DE90C0000BA00F0D1F5E0
S31581700640602052E21CF0D1F5020000BA3CF0D1F57F
S315817006505CF0D1F57CF0D1F5F851B1E8202052E209
S31581700660F851A0E8FAFFFFAA600072E3F9FFFFAACA
S315817006701CC012E220C06CE20CF08F10110000EAEF
S315817006800000A0E1043091E4044091E4045091E4C7
S31581700690046091E4047091E4048091E404E091E44F
S315817006A00CF08FE00000A0E10000A0E1043080E44E
S315817006B0044080E4045080E4046080E4047080E443
S315817006C0048080E404E080E4E001BDE8822FB0E13B
S315817006D00130D1140140D12401C0D1240130C0141C
S315817006E00140C02401C0C0241180BDE804C06CE201
S315817006F002005CE30130D1C40140D1A401E0D1E4B0
S315817007000130C0C40140C0A40C2052E001E0C0E4B5
S31581700710EDFFFFBA03C011E2C4FFFF0A0310C1E304
S3158170072002005CE304E091E42C00000A570000CAE1
S315817007301C2052E21F0000BAE0032DE900F0D1F5CA
S31581700740602052E21CF0D1F5020000BA3CF0D1F57E
S315817007505CF0D1F57CF0D1F5F000B1E82E34A0E1F2
S31581700760202052E20053B1E8043C83E12444A0E1A5
S31581700770054C84E12554A0E1065C85E12664A0E1FF
S31581700780076C86E12774A0E1087C87E12884A0E163
S31581700790098C88E12994A0E10C9C89E12CC4A0E1A3
S315817007A00ECC8CE1F813A0E8E9FFFFAA600072E332
S315817007B0E8FFFFAAE003BDE81CC012E20500000A4B
S315817007C02E34A0E104E091E404C05CE20E3C83E146
S315817007D0043080E4F9FFFFCA031041E2BAFFFFEAF1
S315817007E01C2052E21F0000BAE0032DE900F0D1F51A
S315817007F0602052E21CF0D1F5020000BA3CF0D1F5CE
S315817008005CF0D1F57CF0D1F5F000B1E82E38A0E13D
S31581700810202052E20053B1E8043883E12448A0E1F4
S31581700820054884E12558A0E1065885E12668A0E14E
S31581700830076886E12778A0E1087887E12888A0E1B2
S31581700840098888E12998A0E10C9889E12CC8A0E1F2
S315817008500EC88CE1F813A0E8E9FFFFAA600072E385
S31581700860E8FFFFAAE003BDE81CC012E20500000A9A
S315817008702E38A0E104E091E404C05CE20E3883E195
S31581700880043080E4F9FFFFCA021041E28EFFFFEA6D
S315817008901C2052E21F0000BAE0032DE900F0D1F569
S315817008A0602052E21CF0D1F5020000BA3CF0D1F51D
S315817008B05CF0D1F57CF0D1F5F000B1E82E3CA0E189
S315817008C0202052E20053B1E8043483E1244CA0E144
S315817008D0054484E1255CA0E1065485E1266CA0E19E
S315817008E0076486E1277CA0E1087487E1288CA0E102
S315817008F0098488E1299CA0E10C9489E12CCCA0E142
S315817009000EC48CE1F813A0E8E9FFFFAA600072E3D8
S31581700910E8FFFFAAE003BDE81CC012E20500000AE9
S315817009202E3CA0E104E091E404C05CE20E3483E1E4
S31581700930043080E4F9FFFFCA011041E262FFFFEAE9
S315817009400DC0A0E1F05F80E80000A0E31EFF2FE1FB
S31581700950F05F90E80CD0A0E10100A0E1000050E3C7
S315817009600000001A0100A0E31EFF2FE1300099E517
S31581700970102F11EE022A12E20010A00364109F1547
S31581700980FC05B0E8FC05A1E8FC05B0E8FC05A1E82A
S315817009901EFF2FE150109FE5014050E01000000AC4
S315817009A048209FE5000CB1E8000CA0E8020051E1F7
S315817009B0FBFFFF3A38209FE538309FE50300B2E8A8
S315817009C0FF1001E2170051E30300001A040080E072
S315817009D0001090E5041081E0001080E5030052E17B
S315817009E0F5FFFF3A1EFF2FE10000FFFF00007081C7
S315817009F0D0CB7381D0CB7381F04E74814B461A689C
S31581700A0008B584B06946936CD26C009300230193C8
S31581700A10029202AA039301330AF08CFF04B004BCDC
S31581700A20914600BD4B4608B5074B6946C9184B467A
S31581700A301A681B68926CDB6CD218521A20F0F2FE1F
S31581700A4004BC914600BDC04600F0FFFF70470000B0
S31581700A504B4670B51B68CE4605000C0000B583B059
S31581700A601B6C066E1C48019308F064F9002809D046
S31581700A7001AA102126F092FC002824DB01991748DF
S31581700A8026F0C0FB80230F209B001C4008F011FAD2
S31581700A901349002C00D11349134826F0B3FBAB20C0
S31581700AA008F007FAFFF7D2FFC020C00014F098F95A
S31581700AB02AF00AFA2B6F002B09D0EA6E002C02D12C
S31581700AC001992000B04703B004BC914670BD4B4676
S31581700AD01B685A6CF2E7C046A4D97281ABD9728110
S31581700AE08DD972811F927381D0D9728170470000BE
S31581700AF0F0B5CE4600B5060082B0404808F01AF9C6
S31581700B00336F0700002B09D030000FF0BCFF00282F
S31581700B104AD03B4826F076FB25F04AFB4A46394D4A
S31581700B2012686846546C384AA36062600522E36035
S31581700B3023612300143322602B6000F025FD334B33
S31581700B40A36104236361009BE361019B236223009C
S31581700B5024332B604B461B68002F2AD148462B685D
S31581700B60026804242A491C605960916CD26CD960E0
S31581700B70716F9A601A0010322A60002932D0B26F72
S31581700B80002A2FD0006823481C615861521A9961D6
S31581700B90DA6120332B602800FFF7A8FF4B460022CD
S31581700BA01B682B685A601A6002B004BC9146F0BD0E
S31581700BB001373B78202BFBD0002BCFD0164B3800DA
S31581700BC0A36225F0AFFB2B680D3080083900186061
S31581700BD00833180025F048FB2B681A6892009B1819
S31581700BE02B60BBE7716E0029D5D0B26E002AD2D048
S31581700BF000680848586104201861C7E74FFB728105
S31581700C00E9D97281D0CB7381010041540600415478
S31581700C10020041540500425409004154F0B5CE4654
S31581700C20C02700B505001E00074018D180246400D6
S31581700C30044007D03C001800FFF75AFF200004BC1F
S31581700C409146F0BDC023DB00184204D029003000E4
S31581700C50FFF7FEFEF2E73000FFF74AFFF6E7012461
S31581700C606442EBE730B50400C06ECE4600B500280D
S31581700C700CD0094923F007FD002807DAE06EFFF7EB
S31581700C80BDFE002802D005480EF0BAFB2AF01CF989
S31581700C9004BC914630BDC04609DA728111DA72811F
S31581700CA04A46036E04B5C06E984704BC914600BD32
S31581700CB030B5841D431DE47FDB7F24021A4D1C43AE
S31581700CC0C31DDB7F1B041C4303000833DB7F1B06BC
S31581700CD023430124AB4225D10400030029342833F0
S31581700CE024781B7824021C4303002A331B781B0447
S31581700CF01C4303002B331B781B06234300240B6094
S31581700D00010003002D3109782C331B7809021943B0
S31581700D1003002E332F301B781B04194303781B066F
S31581700D200B431360200030BD18286F0180B44F4685
S31581700D303A6C002080B4FA633A6C103A3A6404BC17
S31581700D40914680BC7047000080B44F46FB6B002093
S31581700D50034A083380B4136004BC914680BC7047E3
S31581700D604000708170470020704700004B460248F2
S31581700D7008B526F0A8FAC04628D47281F0B5CE4659
S31581700D8000B5A2B002AD0400802228002E492AF057
S31581700D90F3F8A26BE16B2D48266C26F033FA4B463D
S31581700DA05A68370F3F07D20708D5596C5A6CA36BAF
S31581700DB027489A1AE36B591A26F024FAE36A226B4A
S31581700DC0616B244826F01EFA236A626AA16A2248F8
S31581700DD026F018FA2369A269E16900931F4863694D
S31581700DE026F010FA2368E168A26800931C4863684C
S31581700DF026F008FA4E21002F00DB20315A2273002B
S31581700E0000D420324323B00000D420335620F6001C
S31581700E1000D420300090134826F0F4F9236C1249DF
S31581700E201A0600D51149104A580600D50F4A1F2057
S31581700E3003400F489B0000900E48EB5826F0E2F96C
S31581700E4022B004BC9146F0BD20B172812C48738169
S31581700E50264873814E48738172487381964873812F
S31581700E60C6487381F6487381078A7381EEF47281FD
S31581700E701F9273810649738130B5CE4600B50400E1
S31581700E801CF0C6FB054826F0BDF9E36B2000043BD8
S31581700E90E363FFF773FFFFF769FFC046F312738150
S31581700EA030B5CE4600B504001CF0B2FB054826F07D
S31581700EB0A9F9E36B2000043BE363FFF75FFFFFF75C
S31581700EC055FFC0467E12738130B5CE4600B504009B
S31581700ED01CF09EFB054826F095F9E36B2000083BD4
S31581700EE0E363FFF74BFFFFF741FFC046B111738193
S31581700EF030B5CE4600B504001CF08AFB054826F055
S31581700F0081F9E36B2000083BE363FFF737FFFFF757
S31581700F102DFFC0465DFC728130B5CE4600B50400AA
S31581700F201CF076FB054826F06DF9E36B2000083BD3
S31581700F30E363FFF723FFFFF719FFC0464C117381F7
S31581700F4030B5CE4600B504001CF062FB054826F02C
S31581700F5059F9E36B2000083BE363FFF70FFFFFF757
S31581700F6005FFC046A904738130B5CE4600B504002D
S31581700F701CF04EFB054826F045F9E36B2000083BD3
S31581700F80E363FFF7FBFEFFF7F1FEC046AE047381A4
S31581700F907047000010B507480EF032FA064825F002
S31581700FA0ADFAFFF7E0FEFFF7F3FF002000F0E6F8F9
S31581700FB0002010BD3A12738150C30000011080E089
S31581700FC0EEFCFFEA013080E11F0013E30600000AA0
S31581700FD00120A0E110402DE90010A0E110009FE5ED
S31581700FE0C0A700EB0000A0E31080BDE80100A0E37C
S31581700FF01EFF2FE1F8DC72811EFF2FE11EFF2FE1AC
S31581701000C03099E5031B81E3001A81E1001183E702
S315817010101EFF2FE110402DE9004099E5804184E063
S31581701020482094E5222AA0E14C3094E5481094E555
S31581701030233AA0E1213A83E0020053E11080BD9802
S315817010400200A0E11E10A0E3ECFFFFEB012082E21B
S31581701050F4FFFFEA103F11EE103F11EE013AC3E340
S31581701060103F01EE1EFF2FE110402DE9104F11EE5A
S31581701070014014E21000001ADEFFFFEB0400A0E1CC
S315817010801210A0E3014084E2DCFFFFEB010A54E316
S31581701090F9FFFF1A0000A0E3DDFFFFEBC03099E591
S315817010A0103F02EE0030E0E3103F03EED2FFFFEB1C
S315817010B0103F11EE013083E3103F01EE103F11EEC8
S315817010C0043083E3103F01EE1080BDE8103F11EECE
S315817010D0040013E31EFF2F0110402DE9104F11EE0E
S315817010E00540C4E3A0FCFFEB104F01EE1080BDE814
S315817010F0100F11EE2001A0E1010000E21EFF2FE129
S315817011004B4608B500F051F8FFF758F90521802054
S3158170111000F080F80521812000F07CF80121812082
S3158170112000F0BAF800F0CEF904BC914600BD00001B
S315817011304B46082208B504200E4925F06AF9002825
S3158170114013D12823197803290CD8080029F08CFE2D
S315817011500F020608042004BC914600BD0220FAE7FE
S315817011600820F8E7044826F0AEF80C20F3E7012052
S31581701170F1E7C046968F73819F8F7381494602B41A
S315817011800122034B5A619A61024A1A61FEE7C0468F
S31581701190A00CC201AF1400004B4608B529F00CFFB4
S315817011A004BC914600BD7047704710B500F0E4F8F5
S315817011B0FFF7FAFF002010BD10B502480EF020F936
S315817011C0002010BD86427381064B1B680360064BF7
S315817011D01B684360054B1B688360054B1B68C36046
S315817011E0002070470038C2010438C2010838C20134
S315817011F00C38C20110B58C00C9061C23890F1C409E
S315817012008900A24041180F200B68A04083431A437E
S315817012100A6010BD70B5242345090A001900694317
S315817012200400054BC8180A2D01D8044BC818210033
S31581701230FFF7E0FF70BDC046742AF0010008C20155
S31581701240CB069B0F9B00C01800681C238900194030
S315817012500D3BC8401840704770B51E234609C506B8
S315817012604000242418400A4B22007243ED0FD31894
S315817012700A2E01D8074BD318AD0014335B1903249A
S315817012801A68844081400020A2431143196070BD61
S31581701290742AF0010008C20170B51E234609C5067D
S315817012A04000242418400A4B22007243ED0FD31854
S315817012B00A2E01D8074BD318AD001C335B19032452
S315817012C01A68844081400020A2431143196070BD21
S315817012D0742AF0010008C20130B5CE46204D00B5A2
S315817012E0280016F051FF1F4C606000281EDA280016
S315817012F016F04AFFA060002826DA280016F044FF0F
S31581701300E06000280DDB184916F040FD002818D1E1
S31581701310E06816F083FD002813D10121E068FFF79C
S31581701320BBFF124B00201A681A600AE0104916F04A
S315817013302DFD002805D10100606816F089FD002811
S31581701340D5D004BC914630BD0A4916F01FFD0028E0
S31581701350F7D1A06816F062FD0028CED0F1E7C046BD
S315817013601F927381FC9F7381F68F7381CC00C2014A
S31581701370E08F7381E98F73810B4A0C4B1A608022DF
S31581701380520519681142FCD00949C622094B92014E
S315817013901A6080230A685B031A430A60064A1168D9
S315817013A00B4313607047C046001804902800C20131
S315817013B06800C2015400C201D002C201074B1B688A
S315817013C0D804074AC00E0130110041439806800F38
S315817013D0013003004B4318007047C0462800C20194
S315817013E000366E0170B5CE4600B595B011220021DA
S315817013F005000FA829F0B8FD07A8FFF7E5FE041EC2
S3158170140047D1079B002B44D00C2208A924F074FE87
S31581701410030242D002260A90254922000BA825F0A4
S31581701420E5FE0BA9280023F03AF900281CD0002C80
S3158170143037D120490BA824F017FF0BA807F07AFC47
S31581701440002811D1230105A933430BA80B70079B83
S3158170145003934B700A9B1A0E4B718A701A0CCA7061
S315817014601A0A0A7127F06AF90134042CD4D1124C04
S31581701470200007F05FFC00280BD10A9B11210F4ACF
S315817014800FA80093079B25F09CFE0FA9200007F0FB
S31581701490F7FA15B004BC914670BD80231B041843BE
S315817014A0B8E7220006490BA825F0A0FEC5E7C0461D
S315817014B0BA477381C5477381D7477381DF47738114
S315817014C0CD477381704700004B46F0B51B68CE4699
S315817014D0FA26144AB600144D00B55A64280016F0DF
S315817014E053FE1249040016F051FC2000F624FF3495
S315817014F0012116F0ADFC013C002C0ED1280016F0AE
S3158170150043FE0B49050016F041FC2800012116F0B7
S315817015109FFC200004BC9146F0BD300024F0EEFFA4
S31581701520E9E7C046000100801F927381DDD6728122
S31581701530E5D6728180204A46000604B501000FF017
S315817015403BFD4B465863002004BC914600BD30B5C7
S31581701550A0240225CE4600B520002900FFF75AFE49
S3158170156001212000FFF798FE200029000134FFF742
S3158170157073FEA62CF0D1002016F016F9434258411D
S31581701580404204BC914630BD30B5CE4600B50400AC
S31581701590074807F0CFFB002808D01022002125F0DC
S315817015A049FF6160206004BC914630BD6060F9E797
S315817015B0D747738170B5CE46274E002100B585B069
S315817015C0300007F05DFA254D0021280007F058FAA2
S315817015D0234C0021200007F053FAFFF7A9FD0C2850
S315817015E02FD12049300007F04BFA03221E4914206F
S315817015F024F00FFF002806D1C27D022A0DD0022168
S315817016001A4825F0FFFD4B46D86DFFF7EBFEFFF7C5
S3158170161063FE05B004BC914670BD81690029F2D024
S31581701620C269002A09D00123039002900190009328
S3158170163009330F4824F07EFAE5E7280007F050FA5F
S31581701640E1E70C49012802D00228DCD10549200046
S3158170165007F016FAD7E7C0466D3573817835738191
S31581701660873573815A927381933573819735738177
S31581701670C8B9738119D472814B4608B5FFF7B2FE2A
S31581701680002004BC914600BD10B50300080011000E
S31581701690984710BD70B514001D00012A17DD102200
S315817016A00021586825F048FE01000600094825F09A
S315817016B0A9FD611E2A1D3000FFF7E6FF04000100B7
S315817016C00548631E9C4125F09DFD200070BD012457
S315817016D06442FAE7EA04738112057381F0B5CE46E6
S315817016E000B51C0088B0531E06000F000493231D9D
S315817016F00593531E1500002B34DD102207A96068EF
S3158170170025F01AFE079B1B78002B2BD03A2B29D0FC
S31581701710232B27D00922184960680FF089FE230090
S31581701720AA1E083300280ED0C168012900D106315E
S315817017301248CC070DD404008C342468A14208DC8D
S315817017400F4825F05FFD0120404208B004BC9146E8
S31581701750F0BD00240190029400913900300009F0A7
S315817017600BFAF2E70123049A0293044B0193054B1A
S315817017700093059BF1E7C046C8A37381D8D5738161
S3158170178048F772811F07000030B5CE4600B50C0050
S31581701790044807F0CFFA21000FF09EFD04BC9146F4
S315817017A030BDC04630F5728130B5CE46010000B588
S315817017B00400204825F026FD20000EF0E5FF050087
S315817017C0012832D11C480DF01BFE2368FF200004CE
S315817017D0190E1A060A43190201401B0A0A43FF2190
S315817017E0090216480B401343154A934205D12000CE
S315817017F00EF092FD002806D112480DF001FE2800E8
S3158170180004BC914630BD20000EF0E4FE0E480DF00A
S31581701810F7FD20000EF0A5FD002801D10B48ECE7FD
S315817018200B4800250DF0ECFDE9E70A4801250DF01E
S31581701830E7FDE4E7D42B7381F52B73810C2C7381CF
S3158170184056190527212C7381392C7381542C7381F8
S31581701850652C7381692C7381F0B5CE4600B5012AEA
S3158170186008DC0E4B1868FFF79FFF0600300004BC3A
S315817018709146F0BD92001C1D9D18002601271022ED
S315817018800021206825F058FDFFF78EFF002800D0D3
S315817018903E000434AC42F2D1E8E7C046A4B9738104
S315817018A070B5CE4600B5050083B00E000E4807F0C0
S315817018B041FA002804D1002003B004BC914670BD62
S315817018C00A4924F005FD041EF5D1094B019009489A
S315817018D01968009625F096FC6B4601222100280036
S315817018E0FFF7FCFEE8E7C04672DC72817CDC7281B0
S315817018F0A4B9738180DC7281F7B50500074C0848FD
S31581701900084E01930B00241A0092A7102A003C00FE
S31581701910744321000FF0F4FDFEBDC04670C473811F
S31581701920E8BB7381B76DDBB600B5B3B0C8226946C3
S31581701930002024F07FFA25F065FC04480DF060FDE7
S3158170194003480DF05DFD002033B000BD80157381B5
S3158170195006167381F0B5050087B010000C0016006D
S315817019601F0013F099FF0390032D00D969E02800B9
S3158170197029F07AFA2B2B023803226349606824F0A6
S31581701980B4FC051E05D1300013F0D0FF280007B0D6
S31581701990F0BD03225D49606824F0A7FC00280DD153
S315817019A03968300013F0E2FF002801D10025EDE798
S315817019B00399574825F026FC0125E7E70422554906
S315817019C0606824F092FC051E02D001256D42DDE728
S315817019D0300013F068FF0028E8D003994C4825F051
S315817019E011FCD3E749490322606824F07EFC011E0D
S315817019F00FD10A22A06825F09FFC010004003000F7
S31581701A0013F0D0FF051ED7D13C60434825F0FAFB11
S31581701A10BCE740490422606824F067FC011ED4D17A
S31581701A20A0680A2225F088FC04000100300013F0BA
S31581701A3064FF0028BAD022000399384825F0E2FB6A
S31581701A40BAE73749606824F043FC051E2DD1010041
S31581701A501022A06825F070FC290005901022E0689C
S31581701A6025F06AFC290004901022206925F064FC17
S31581701A7000900500049B3A6803992A4825F0C2FBB9
S31581701A80059B3000049A00932B00396813F0FCFF94
S31581701A90254A0400854200D0244A254821002D1B01
S31581701AA06B1E9D4125F0AEFB70E72249606824F07C
S31581701AB00FFC051E89D101001022A06825F03CFC1F
S31581701AC0290005901022E06825F036FC29000490E3
S31581701AD01022206925F030FC00900500049B3A683D
S31581701AE00399154825F08EFB059B3000049A009367
S31581701AF02B00396813F0E0FF0B4A0400854200D051
S31581701B000A4A21000D48CAE75BD47281E94973811B
S31581701B105FD47281EB76738179D4728194D47281B8
S31581701B20956E7381B1D4728152D4728155D472811A
S31581701B30E1D4728111537381F6D4728127D5728102
S31581701B4070B50500294817F0ADF9060028000EF02A
S31581701B501BFE0400012843D12B68FF200004190E57
S31581701B601A060A43190201401B0A0A43FF21090218
S31581701B701F480B4013431F4A934205D128000EF02C
S31581701B80CBFB002804D11C480DF03AFC200070BDB7
S31581701B90002E06D028000EF0E4FB002801D11748EC
S31581701BA0F2E7AB7F1648062BEED12B6C2800FF250A
S31581701BB040302D041A0E190611431A022A401B0A47
S31581701BC01143FF2212021340194301D10D48DBE7FD
S31581701BD002680430002AFBD10FF08AFB0400D5E736
S31581701BE0094801240DF00CFCD0E7C0464849738141
S31581701BF04F4973815619052761497381714973817B
S31581701C007F4973818F4973819D49738110B5012A8B
S31581701C100EDD10220021586825F08EFB040021000C
S31581701C20054825F0EFFA00212000FFF789FF10BDE6
S31581701C3081242406F3E7C046921273814B460A00CB
S31581701C4008B50100024825F0DDFA04BC914600BD55
S31581701C50FD4273814B4630B51C68CE4600B5216C0A
S31581701C602448FFF7EBFF616C2348FFF7E7FFE36CCE
S31581701C70002B0BD000212148FFF7E0FFA16C204893
S31581701C80FFF7DCFFE16C1F48FFF7D8FF4B461E4814
S31581701C90996825F0B7FA4B461C48C0331968FFF727
S31581701CA0CDFF4B461A48196BFFF7C8FF4B4619484B
S31581701CB0596CFFF7C3FF4B461748D96BFFF7BEFFC9
S31581701CC04B461648196CFFF7B9FF4B4680229C33F9
S31581701CD0D2001968124825F095FA4B46DA6D002ABA
S31581701CE003D0D96D0F4825F08DFA002004BC91463A
S31581701CF030BDC0468CF4728198F47281A4F472817D
S31581701D00AEF47281B7F47281BFF47281D5F4728147
S31581701D10DEF47281E8F47281F2F47281F9F472817F
S31581701D2003F5728121F572810A4B494602B501220A
S31581701D301A701CF0BBFF1EF0D9FE1FF0B5F81FF0AC
S31581701D408DF91EF0A7FD1CF03CFC1CF03BFC04BC1D
S31581701D50914600BDDCCB7381F0B5CE4600B5FAB045
S31581701D600F00150000216822079014A81E00002418
S31581701D7029F0FAF8142200210FA829F0F5F810221B
S31581701D80AB490BA829F0F8F89822002152002EA8A9
S31581701D9029F0EAF8A5420FD12C00002E0CD1A54866
S31581701DA025F030FA002200233000009201931DF055
S31581701DB005FF0500040006009F4B1B78002B11D090
S31581701DC033002A000FA914A81CF0EEFA1BF016FC3A
S31581701DD0002F0AD1994825F015FA00210BA81CF01D
S31581701DE079FAAAE0FFF7A0FFEAE7380021F0A4FBB1
S31581701DF00028EFD17B68FF252D0406001A06190E7F
S31581701E0011431A022A401B0A0A43FF2109020B4019
S31581701E101A434B4615001A681B68916CDB6C002B54
S31581701E2001D101214942864A002380200005521939
S31581701E307341002504920593049B1A0B1303029335
S31581701E40059B029A03931B05160B0A180298039930
S31581701E501E432B0012184B410421089209930120CD
S31581701E6008AB32001DF012F9A84223D08020029966
S31581701E7040010EF093F908AB0890320004210120DD
S31581701E8009951DF003F9A84214D06E4825F0BAF968
S31581701E90002329001A002EA80FF008F8061E2AD0F2
S31581701EA016246948644225F0ADF920007AB004BCE5
S31581701EB09146F0BD7968FF200004089DFF260A0EC1
S31581701EC00B0613430A020240360213430A0A324052
S31581701ED039001A43280029F04FF8029BFF273F04E7
S31581701EE01B021F40029B1B0A1E40029B3E431B0E18
S31581701EF033436B60CCE729000BA81CF0EBF96B6858
S31581701F00280B00031A0E1F061743FF2219021204AB
S31581701F100A40FF2109021B0A0B403A431A434B4B75
S31581701F203100ED1801232D1A019352190333120BC7
S31581701F300093023233001CF07FFF454806F0FAFEAB
S31581701F40002306001B931A93984257D114A90798B8
S31581701F501BF096F80690002867D0002C2FD020AB06
S31581701F6006AA1B780021237169239B181B786371DC
S31581701F706A239B181B78A3716B239B181C9A1B78F9
S31581701F802173100A61736072100CA072100EE37166
S31581701F900B00E072A173E1731E981F992272121859
S31581701FA04B41110A22746174110C120E2375E274FD
S31581701FB01A0A62751A0C1B0EA174A275E3752549EE
S31581701FC0254806F05DFD24A828F05EFF239C002835
S31581701FD00FD1069B139D002B25D020492800984749
S31581701FE004001E4B21002800DB6B9E6F00231A00B4
S31581701FF0B047109B0F9A53601A6056E724F092F996
S31581702000451C022128000DF0F7FE1B90002803D194
S31581702010134825F0F7F899E72A0031006D001FF013
S31581702020B3F81A9592E70F4CDBE702246442E0E736
S315817020306CCF7281B5F57281DCCB73814DF672810D
S31581702040FF1F0000FFF5728127F67281FF0F000076
S315817020504FFB728196F67281B6F6728168CA738108
S3158170206080F6728101000080F0B5CE4600B516000B
S3158170207082B01D00012A4FDD2949586824F028F95C
S3158170208000282FD10400022E05D001001022A868E5
S3158170209025F052F90400234B1B78002B01D1FFF7F1
S315817020A043FE1BF0ABFA01A968461EF041FB0500A1
S315817020B00120002D12D029001B4825F0A3F8019B21
S315817020C02100009A2800FFF747FE41000400490865
S315817020D0164825F097F82000441EA04102B004BC32
S315817020E09146F0BD102200216868002425F024F9FC
S315817020F00700022E05D021001022A86825F01CF950
S31581702100040039000A4825F07DF80A4B21000A4AF5
S3158170211038001B681268D6E701204042DEE7C04668
S3158170212038F57281DCCB738140F5728167F5728186
S315817021308BF57281D8CB7381D4CB7381F0B5CE4652
S3158170214000B588B005000F00140000212022684672
S3158170215028F00AFF2449280024F0BAF800283CD0D8
S315817021600A220021380025F03AF90100280010F082
S315817021704DF8061E2DD03A21380024F0C7F800217B
S31581702180884204D00130102225F0D6F80100300043
S315817021901DF052FC154B1860002C1AD0124928007C
S315817021A024F096F82300124A002800D0114A202183
S315817021B0684625F006F85C246B462F21180024F0BA
S315817021C0A5F800280CD16A4601001DF06DFC0A4BFA
S315817021D0186008B004BC9146F0BD1DF0BFFCD9E70C
S315817021E0431C0470E9E7C0469F1A7381D4CB73810F
S315817021F0600D738187287381D8CB7381F0B589B06F
S31581702200224C551E1F1D2A000593012302930E0031
S3158170221000933B000194049008F0AEFC002D0CD124
S315817022201B4B1B68236607AA06A9206EFEF740FD25
S3158170223000280AD0012009B0F0BD059B102200212B
S31581702240586825F079F82066EDE7079B069A216E26
S3158170225010489A1A1FF0E6FA3A002900300008F001
S31581702260D1FB0028E6D108F07BFC230005225E3382
S3158170227031001A7001230293E223DB0001940093EB
S315817022802A003B00049808F077FCD4E7D8D573818F
S31581702290A4B9738168D67381F7B50EF0FFFE060017
S315817022A015480DF0ADF83468B44201D10020FEBDF9
S315817022B027002100443F01203A683C394923024274
S315817022C000D11B3B4F20950700D421380025009003
S315817022D00A4824F097FF0A4B5B59BB4204D1094BDC
S315817022E00948595924F08EFF04350C2DF3D10A20F3
S315817022F00DF05CF82468D7E731FC72814DFC7281F0
S3158170230014327481A8B9738125DE7281F7B501277C
S315817023103E0000920193009B9E4206DB002F02D005
S315817023200A200DF043F80020FEBD019AB300D558FE
S31581702330012E02DD20200DF039F80F49280024F096
S315817023407EF8041E13D0002328002370A51C0DF07F
S3158170235057F85C2308492370280024F070F8041E0E
S31581702360F1D1270028000DF04BF80136D3E728000C
S315817023700DF046F8F9E7C04669FC7281F8B505003B
S31581702380002602272B8E9E4201DBA869F8BD2B6A37
S31581702390EC1828237343E418A3683B420FD0E06896
S315817023A000280CD06269002A09D06368082B08D18D
S315817023B0002128F0D9FD6169E06828F00DFD0136AC
S315817023C0E0E72369E91828F0D7FDF4E710B5010035
S315817023D00268064B06489A4204D10B8A0120022B69
S315817023E003D0044824F00EFF002010BD7F454C4673
S315817023F0119D7381359D7381F0B5170087B03F4804
S315817024001E0006F097FC7B1E02900093351D002BF3
S3158170241048DD746823782D2B42D16378702B01D077
S31581702420732B3DD1BB1E350000930835002B3ADDE9
S3158170243005AA1021286824F0B1FF163033D0009B8D
S315817024400435013B009305980126FFF7BFFF0028ED
S3158170245023D0059E002C44D06378702B41D1F369CB
S315817024600027F3180393039B7C01E418B38D9F4275
S315817024701DDBB3690593029B002B37D105992048E3
S3158170248024F0C0FE2900059B00989847060001003C
S315817024901C48731E9E4124F0B5FE300007B0F0BD16
S315817024A00024C5E70024184B1B680593CBE7E368C6
S315817024B022690193002A04D063680198F11828F083
S315817024C05BFD20696269904205D0019B121A0021D9
S315817024D0181828F049FD21690137019828F07CFC8C
S315817024E0C1E73000FFF74AFF0590C4E707490298B4
S315817024F023F0EEFE061EC1D1CFE7C04672DC728133
S31581702500F6F672811EF77281A4B9738145F772816D
S31581702510F0B51600A3B01D00012A24DC784B1C6827
S3158170252078480CF06DFF784806F004FC002832D1AB
S31581702530764824F067FE2000FFF748FF002800D117
S31581702540D9E02000FFF71AFF04002100704824F0BB
S3158170255059FE28F0D1FC0020A0476E480CF050FF40
S31581702560012023B0F0BD10220021586824F0E4FECA
S315817025700400022ED4D16849686823F0A9FE002828
S31581702580CED1033026F038FB0028E9DD210063487F
S3158170259024F038FEC4E71022002124F0CDFE050018
S315817025A05F4806F0C7FB061E19D023F0BBFE0200FA
S315817025B0FF2800D2FF223100280028F0DDFC300090
S315817025C023F0B0FE0100FF2800D2FF21280028F0F9
S315817025D003FC2A002900534824F014FEABE75248C5
S315817025E006F0A8FB061E79D0010002A823F03CFEF6
S315817025F0300023F097FE06004C4806F09BFB02AB39
S315817026000200F018002A6DD0494924F0EFFD361882
S31581702610484806F08FFB021E25D002AB4649F0185A
S3158170262024F0E4FD454F3618380006F083FB02AA84
S31581702630B3180193002859D0380006F07BFB1FF040
S315817026406DF9FF21020E03060904134302020A4043
S315817026503B491343020AFF200002024001981A4344
S3158170266024F0C4FD3618374806F064FB021E05D087
S3158170267002AB3549F01824F0B9FD3618334806F0A7
S3158170268059FB021E05D002AB3149F01824F0AEFD1C
S315817026903618304806F04EFB021E05D002AB2E4925
S315817026A0F01824F0A3FD36182C4806F043FB071E5C
S315817026B007D002AB3900F01823F0D6FD380023F02D
S315817026C031FE02A823F02EFE0200FF2800D2FF22DF
S315817026D002A9280028F050FC02A871E7204824F04E
S315817026E091FD89E71F4924F081FD90E71E49019884
S315817026F024F07CFDB6E71D480CF082FE25E7C046C6
S31581702700A4B973815AFA728188FA728191FA728147
S315817027109FFB7281C3FB72811DFA728122FA72816B
S315817027204FFB728158FB72818B357381E2FA7281AC
S31581702730EBFA728102FB728109FB72810EFB7281E7
S3158170274016FB72811DFB728126FB72812CFB728155
S3158170275036FB72813CFB728145FB72814CFB7281C7
S31581702760BCFA7281F4FA7281273B738179FB72812B
S3158170277010B50020012A04DD01000A22586824F070
S31581702780DBFD02235B42181A10BD13B50224009437
S3158170279017F0C6FB16BD13B50224009417F0E4FB3F
S315817027A016BD13B50224009417F09CFC16BD13B5A3
S315817027B00224009417F0D8FB16BD13B50224009439
S315817027C017F090FC16BD13B50124009417F0A8FB81
S315817027D016BD13B50124009417F0C6FB16BD13B54B
S315817027E00124009417F07EFC16BD0000F0B51D0023
S315817027F0A9B0002305920793042A05DC0EF060FECA
S315817028000400200029B0F0BD01270AAB009707AA02
S31581702810A9683C0068680FF0F1FE061EF1DB079827
S315817028200AA9436804931AF031F8041E07D033005D
S31581702830049A6968174824F0E5FC0124E1E70100F0
S315817028401022E86824F078FD059B07002000052B8F
S3158170285004D010222100686924F06EFD08AB0090C7
S3158170286002930023019300220023390028691AF00C
S315817028701DFB002807DA0096049B6A682969064859
S3158170288024F0C0FCD9E7089A099B044824F0BAFC65
S31581702890B7E7C046A2FE7281CEFE7281F9FE728161
S315817028A0F0B51D00A3B0012A06DC0024104824F07F
S315817028B0A9FC200023B0F0BD012404AB009403AAC7
S315817028C0A96868680FF09AFE061EF2DB039804A960
S315817028D0476819F0DBFF002806D033003A00696833
S315817028E0044824F08FFCE4E71AF018F80400E0E756
S315817028F04CFE728177FE7281F0B5CE460568040012
S3158170290000B5002D06D1274824F07CFC280004BC34
S315817029109146F0BD280020F00FFE06000120002EA2
S31581702920F5DA300020F0F6FF01001F4824F06AFCCA
S315817029300A3631D16B69FF2000041A0E19061143CC
S315817029401A0202401B0A1143FF22120213401943D5
S315817029500F2903D81022154824F054FCAA69FF2642
S315817029603604FF200002110E13060B43110231400B
S31581702970120A0B4302401A43112A0DD96B691A0E3A
S31581702980190611431A0216401B0A03403143194333
S315817029901122074824F036FC064824F033FC0020C7
S315817029A02060B4E7A9237381D4237381F223738161
S315817029B00A247381303E738110B500291FD0431864
S315817029C0013B1B78002B01D00A2B07D10D4A482475
S315817029D00378002B0FD0D35CA34309D100210EE07D
S315817029E001290CD04378002BF8D001300139EFE7FB
S315817029F00029FADCF2E70029F2DC4B4259410800E2
S31581702A0010BDC046A6D17281F0B5CE4600B505001F
S31581702A1082B00F1E0DD0FFF7CFFF041E20D0344E2B
S31581702A20002430000CF0ECFCBC4206DB30000CF06C
S31581702A30E7FC02B004BC9146F0BD002C02DD2D4846
S31581702A400CF0DEFC280001340CF0DAFC280023F04F
S31581702A5069FC2418280023F065FC01302D18E3E702
S31581702A60032637422FD1402F05DD3A0029002248AF
S31581702A7024F0C8FBDDE7214824F0C4FBFB171E4018
S31581702A80F619FF27B6103F02731E0193B44203DB1A
S31581702A901B4824F0B7FBCCE7A300FF20EB5800045A
S31581702AA01A0E190611431A0202401B0A11433B4042
S31581702AB01943019B134A9C4200DB134A1348013424
S31581702AC024F0A0FBE2E7402FCFDC114824F09AFB7B
S31581702AD0A74201DC0F48DCE77B1E295D094A9C42CF
S31581702AE000DB094A0C48013424F08CFBF0E7C046C0
S31581702AF0AC427381A9427381AE427381B76173812E
S31581702B00CC617381273B73811F927381BE427381BE
S31581702B10C742738195767381C9427381054B4A46E3
S31581702B2004B501001860044805F0DAFF04BC9146CB
S31581702B3000BDC046E0CF7381B2477381F0B5CE4692
S31581702B4000B5170096B01D00012A02DC012464428B
S31581702B502FE00222C549586823F0C7FB041E6CD149
S31581702B60BE1E002E01D100F0C5FDC149A86823F0B3
S31581702B70AFFB002822D1FE1E0C350127002E1FD1F6
S31581702B804B463E00DB6D0A930A9B002B01D10124D3
S31581702B900FE00AA8FFF7B0FE0028F8D00A99002E38
S31581702BA004D13100B34806F0F1F80100B24824F03F
S31581702BB029FB200016B004BC9146F0BD083527006C
S31581702BC010220021286824F0B7FB02900A900AA887
S31581702BD0FFF792FE0028DAD0002F1FD00A9A4B4653
S31581702BE0DA65012EE5D0102200216868FF2624F06F
S31581702BF0A3FB01000A98360443681D0E1A062A4300
S31581702C001D0235401B0A2A43FF252D022B401A438C
S31581702C10914207D2994824F0F5FACAE70298FFF7EC
S31581702C207DFFDEE70A00010022F018FA0028C0D085
S31581702C3020F070FE01009248B9E7924E3368002BFE
S31581702C4003D191480CF0DCFBA1E702228F496868B9
S31581702C5023F04BFB0290002850D1032F00DC75E7DF
S31581702C6001001022A868012424F066FB30603000D0
S31581702C70FFF742FE00289CD010220299E86824F062
S31581702C805BFB0490042F1CD13368FF2000045968C4
S31581702C900A0E0B0613430A020240090A1343FF22E6
S31581702CA0120211400B431A000499306822F0D6F94A
S31581702CB0041E20D020F02EFE0100714824F0A2FA65
S31581702CC065E710220299286924F036FB3268010083
S31581702CD0030055682A0E28061043FF222F0212041C
S31581702CE03A4010432A0AFF252D022A400243914217
S31581702CF0D9D267488FE7049B33605AE702226549C8
S31581702D00686823F0F2FA00281CD1032F00DC1DE7D6
S31581702D10A9683068EC6821F0B6FC002804DA20F0E6
S31581702D20F9FD01005C48C9E701002200306822F094
S31581702D3064F9002801DB00243BE720F0EBFD0100FC
S31581702D405648BBE768680378732B00D0EBE0032F96
S31581702D5000DCFBE6EB68A9683068079321F093FC89
S31581702D6002900028DBDB042F16D100230893089B81
S31581702D7000244448079A00930299494B006822F0CF
S31581702D80B2F8A04200DB14E720F0C4FD010045488B
S31581702D9024F038FA01340CE708AB079A0299306847
S31581702DA021F0B8FB089A80230100DB009A4202DD8C
S31581702DB011003D4882E73A4E002802D0300028F053
S31581702DC0DBF82B0000241033089406933B1F049381
S31581702DD02B690A931A783C2A3ED1FF2701333F0229
S31581702DE00A930A9D29783E29C1D0049BA34201DCAE
S31581702DF02E4863E7002905D1069A0134A3009B58B2
S31581702E000A93EEE700220AA9280024F095FA2B7816
S31581702E103F2B16D0020E0306FF21134309040202CB
S31581702E200A40000A1343384018433060089B0436C1
S31581702E30043308930A9B5B1B002B08DC29001C4812
S31581702E403CE70A9B01330A93F0E701330A930A9BA5
S31581702E501A78202AF9D0C4E75B2A4FD144250133E9
S31581702E600A930A9B1B785D2B26D133E0976E73810B
S31581702E70FCFF7281B2477381FFFF7281210073817A
S31581702E8050007381E0CF73816C007381DC00738134
S31581702E90DF00738112017381150173813B01738127
S31581702EA0E0CB7381BB01738159017381A0017381F9
S31581702EB07F01738101300A900A980378202BF9D0AB
S31581702EC0002B0DD1069A0134A3009B580A93049B5B
S31581702ED0A342C6DC0A9B19785D2900D147E787E74B
S31581702EE0B64AD35C2B42F5D010220AA924F024FA73
S31581702EF0089B3070013601330893E8E70A980134EC
S31581702F0023F010FA0A99471C3000F61923F0ACF9B0
S31581702F10089BDF19A300EB1808971B690A93049B1A
S31581702F20A342EBDC23E7672B00D0C1E00023089333
S31581702F30042F00DC0AE6AB680493052F03D11B7856
S31581702F40732B00D002E6EB682969306802936B694E
S31581702F50069321F098FB041E01DA2000DFE6049BBC
S31581702F601B786E2B03D0732B47D1052F45D121004A
S31581702F70306821F02CFC21000A9007000AAA30687B
S31581702F8020F0E8FB049B04001B786E2B31D1102254
S31581702F900021686924F0D0F9069001256D420A9A5C
S31581702FA0BA421CDD7B1C9B1A5A425341ED18049B15
S31581702FB01B786E2B0CD1069B9D4209D12100002274
S31581702FC0306821F0C4F90100029805F059FDB2E626
S31581702FD021000AAA306820F0BDFB041EDFDA049B4B
S31581702FE077481B78732B4BD1691C029805F06AFD63
S31581702FF0A1E601235B420693CFE72100306808ABD7
S31581703000069A21F087FA089D06006E49002DDBD05D
S31581703010002847D0002D45DD049B1B78762B32D155
S315817030202900FFF7C9FC3100041ECDD1042D16D1BC
S315817030303368FF200004190E1A060A4319020140EB
S315817030401B0A0A43FF2109020AA80B405E491A43EB
S3158170305024F0CCF80AA9029805F012FDA9E5AB0710
S315817030600DD1142D0BDC070078000AABF259C0180C
S315817030705649043724F0BAF8BD42F5DCEAE754487C
S3158170308024F0C0F883E5612B06D1524902000AA863
S3158170309024F0ACF80AA997E7732B00D056E52A007D
S315817030A04949F4E7280020F035FC01004A4805E6D5
S315817030B0702B26D06C2B00D0F8E06B3B0493022FDB
S315817030C021D0AB68069300230293032F01D0EB685E
S315817030D002930699306821F0D6FA041E00DA3CE72D
S315817030E0029B3068002B24D021000AAB029A21F012
S315817030F011FA0A9C0500002C09D1029A0699374863
S3158170310089E52023DAE7364B06930023E0E700282A
S315817031100DD0002C0BDD0299324824F073F80A9990
S315817031202800FFF771FC304824F06CF803E6200024
S31581703130B9E7029D20272D4E210008AA306820F01C
S315817031408AFA01000138082800D9A9E027F004FF1E
S31581703150090024005C00A100A800A800A800A800AE
S315817031601FFD00222100306821F0F1F8049B0200D6
S31581703170AB420CDB002800D11D4A1378002B00D19D
S315817031801C4A1D497B1B1D48C91824F03BF8013523
S315817031901F2D0EDD1A4873E7049B013DAB4208DB98
S315817031A015497B1B1748C91824F02CF8002D00D1BE
S315817031B0C1E5089C6B1CBED1BDE5C046A6D17281A6
S315817031C0D50173811F927381EC0173814639738145
S315817031D0F30173810D027381120273814A9B73812C
S315817031E021AF73815F027381303E7381E0CF7381CA
S315817031F0E3FF7281FAFF728123AF73812C0273812F
S31581703200340273815002738121000C22306820F060
S31581703210DBF983680400FF2000041A0E1906114336
S315817032201A0202401B0A1143FF22120230681340B0
S31581703230FF261943360420F0B8FF616802000B0639
S31581703240080E0343080230400343080AFF2109022E
S31581703250084018430A9000D525E7049B08D1AB42F4
S31581703260A7DBD4497B1BD448C91823F0CBFFA0E7D1
S31581703270AB429EDBCF497B1BD048C91823F0C2FF76
S3158170328020000A990C30FFF7BFFBCD4823F0BAFFB7
S315817032908FE7C8497B1BCB48C91823F0B3FF88E7F2
S315817032A0049BAB4200DA72E4C74807E50222C7493C
S315817032B023F01BF800281ED1A968306821F0E3F944
S315817032C0011E00DA2BE53068032F0ADDEA6821F0EA
S315817032D01FFE041E00DB2EE520F01CFB0100BC489E
S315817032E065E421F098FE041E00DB24E520F012FBD4
S315817032F00100B8485BE468680378682B00D09EE06B
S315817033003268FF252D04FF242402B3485369190EB0
S315817033101F060F43190229401B0A0F4323401F437F
S3158170332013681A0E190611431A022A401B0A114391
S315817033302340194323F066FF3368A8485B681A0EE9
S31581703340190611431A022A401B0A23401143194355
S315817033500A0023F057FF3368A1489B681A0E190635
S3158170336011431A022A401B0A11432340194323F041
S3158170337049FF33689B48DB681A0E190611431A0296
S315817033802A401B0A11432340194323F03BFF3368BC
S3158170339095481B691A0E190611431A022A401B0A8F
S315817033A011432340194323F02DFF39008F4823F0B1
S315817033B029FF33688E489B691A0E190611431A02C2
S315817033C02A401B0A11432340194323F01BFF012F07
S315817033D02DD933688748DB691A0E190611431A028B
S315817033E02A401B0A11432340194323F00BFF022FF6
S315817033F01DD0336880481B6A1A0E190611431A024A
S315817034002A401B0A11432340194323F0FBFE102FD8
S315817034100DD9336879485B6A1A0E190611431A02F7
S3158170342015401B0A29431C40214323F0EBFE30686B
S3158170343020F017FF0100724823F0E4FE73E6032241
S31581703440704922F052FF041E15D101001022A8681E
S31581703450FF2523F071FF010E03060B432D04010234
S3158170346032682940000A0B43FF210902084018433C
S31581703470D061FFF79EFB02226349686822F035FFAF
S315817034800290002817D110220100A86823F0D2FF7C
S315817034901022049005910299E86823F0CBFF049A73
S315817034A0059B00900191306808F018FB041E00DDC1
S315817034B041E4FFF77EFB02225449686822F015FFCA
S315817034C0041E61D1AB681B78702B27D130682700B9
S315817034D020F0C7FE05004E4823F094FE4D4823F038
S315817034E091FEAF4200DB26E40AAB08AA3900306848
S315817034F020F06DFE041E05DA20F00CFA01004648B4
S31581703500FFF755FB0A9B3900099A013743480193A6
S315817035100B9B0093089B23F075FEE2E7612B1CD110
S3158170352010220100E86823F085FF10220290039132
S315817035302100286923F07EFF029A039B00900191F6
S31581703540306821F0FEFB041E01DBFFF7F4FB20F0EF
S31581703550E1F901003248FFF72AFB642B01D0FFF7AE
S31581703560F5FA01001022E86823F0E6FE0100306862
S3158170357021F04AFC041E01DBFFF7DDFB20F0CAF95E
S3158170358001002848FFF713FB03222749686822F058
S31581703590ACFE00284CD14B4630681968FEF76CF842
S315817035A0002801D1FFF7C7FB20F0B4F901001F484D
S315817035B0FFF784FB23AF7381560273815D0273813A
S315817035C05A027381650273817202738195747381F4
S315817035D086027381A1027381BD027381CC0273816C
S315817035E0E3027381F90273811003738127037381F7
S315817035F0350373814C037381630373817A0373819A
S3158170360091037381A8037381C9F27281AC0373814B
S31581703610AF037381CA037381FC0373811B04738146
S315817036203504738154047381730473817704738150
S3158170363003223349686822F058FE041E1ED1022F78
S3158170364019D0042F01D0FFF781FA01001022A868E2
S3158170365023F072FE102207002100E86823F06CFEC9
S315817036600500306808F004F92A003900306808F0DE
S3158170367049F8FFF79EFA05000700F2E72149022211
S31581703680686822F032FE011E1ED1032F01D0FFF72A
S315817036905DFA3368002B01D1FFF779FA1022A86899
S315817036A023F04AFE0A900AA8FFF726F9002801D16D
S315817036B0FFF76DFA0A99306808F0CEFB041E01D0C7
S315817036C0FFF765FAFFF775FA02220F49686822F0EB
S315817036D00CFE041E01D0FFF739FA0100022F04D0C7
S315817036E01022A86823F028FE0100306808F084FA59
S315817036F0FFF75FFA054B1B680A93FFF745FAC046D9
S3158170370079087381A604738186617381E0CF738131
S3158170371000207047D00F02230021934248414042D6
S3158170372070470020704713B50024009416F0F8FB9B
S3158170373016BD0000F7B506000F0015001C0058680D
S31581703740022A0FDD9968094A042D00DD1A69FEF790
S31581703750F5FC00232A00009339003000230016F00F
S3158170376003FCFEBD01490A00F1E7C0461F927381D1
S3158170377013B50024009416F0EBFC16BD13B5002426
S31581703780009416F0AFFC16BD10B516F05BFD10BD3A
S31581703790F0B5CE4600B596B00E0005001C000192BC
S315817037A00022019914F0A7FB002829DB2368DA0728
S315817037B001D4022820D09A0712D5002E10D0042762
S315817037C03B4205D00A200BF0F1FD2368BB43236091
S315817037D031000D4823F016FD226802239A43226038
S315817037E0502302AA0199280014F098FB002807D16A
S315817037F0064802A923F006FD16B004BC9146F0BDB9
S3158170380001000348F6E7C046F6287381F14173815A
S315817038100ADE7281F0B5CE4600B586B016001D00FF
S315817038200190012A02DC0124644226E05C68022A46
S315817038302DD07749986822F04BFD002822D0083523
S3158170384000262F6802227349200022F04EFD00283F
S315817038506CD10490002F04D03B785A1E93415B4201
S315817038601F4003A9142011F09CFC039A002A14D1DD
S31581703870010001980EF0C0F80400200006B004BC67
S315817038809146F0BD0C35032E04D00126D9E700266A
S315817038903700D7E701260700D4E7049B0221002E63
S315817038A000D003210B43100005A9049314F017FB74
S315817038B0059B0500002B03D103A811F089FCD4E781
S315817038C0002813D022F02EFD0400002F2CD0020088
S315817038D02900380022F009FD002808D0049A0223B5
S315817038E01A42E9D1DB1813430493E5E704003819CA
S315817038F0002F19D003780024A34211D021000A2207
S3158170390023F01AFD04AB020029000398FFF740FFEC
S31581703910E4E72200013404AB29000398FFF738FFEE
S31581703920059B9C42F5DBD9E70024F9E7002F00D18E
S3158170393079E72378692B18D011D80225632B00D0AB
S3158170394071E7002205AB1100380014F0C3F9041E2B
S315817039500FD03900304823F055FC210089E7732B4D
S3158170396005D00325742BECD05DE70025E9E70125A9
S31581703970E7E72A49059814F009FA030010221033F3
S315817039800190934304D00599254823F03BFC4AE77F
S315817039900598244E002D24D114F040FA059814F020
S315817039A08FFA04003900059A1F4823F02BFC2100F9
S315817039B01E48B44229D81E4823F024FC002D08D015
S315817039C0059814F07DFA0100B0421BD9194823F08D
S315817039D019FC019B103300D14FE7059814F00DFA4D
S315817039E04BE7022D09D00124032D06D114F068FA14
S315817039F00400B04201D863425C412100059814F0FD
S31581703A0027FACFE78442E4D00B4823F0FBFBE0E74B
S31581703A109C767381C9697381390573814F05738109
S31581703A205805738100F0FFFF78057381990573815D
S31581703A3031037381AB057381D705738110B50C0022
S31581703A4003782A2B10D101301022002123F074FCC7
S31581703A50022C05D0042C05D0012C11D1007810BD13
S31581703A600088FCE70068FAE71022002123F064FCE5
S31581703A70032CF4D80123E4005B42A3409843EEE71C
S31581703A800020ECE710B503782A2B05D1013010227E
S31581703A90002123F051FC10BD242BFCD143787B2B64
S31581703AA00ED10230020013787D2B04D1002313705E
S31581703AB005F040F9EFE70132002BF4D11800EAE7FF
S31581703AC00020E8E7F0B5002587B006001F00039156
S31581703AD0049222F027FC0190394B5A190592682D70
S31581703AE004D13100374823F08DFB57E0EB58300015
S31581703AF0019A1900029322F0F8FB041E5ED1029896
S31581703B0022F010FC019B834258D1059B5E68002F81
S31581703B1027D10398FFF7B6FF05000498FFF7B2FF28
S31581703B200100280022F0D4FB0300052E07D830004F
S31581703B3027F09AF903080C0E12155C425C4120003D
S31581703B4007B0F0BD1C00631E9C41F8E7DC0FF6E7F9
S31581703B50DC17E41AE40FF2E75C1E1C43FAE7DC43D8
S31581703B60F8E739000398FFF769FF39000500049873
S31581703B70FFF764FF0300052EE1D8300027F074F952
S31581703B8003070B101419ED1A6C426C41D7E7EC1AC6
S31581703B90651EAC41D3E701249D42D0DB0024CEE77C
S31581703BA001249D42CBDCF9E7EC0FDA17AB42544125
S31581703BB0C5E7EC17DA0F9D425441C0E708358BE7AC
S31581703BC04CBB72813BD4728110B51C00042A1BD107
S31581703BD0110018680DF0A8FE0300023006280ED871
S31581703BE027F042F9040D0D05050D05000023E268E5
S31581703BF06168A068FFF766FF4342584110BD04486B
S31581703C000BF0FEFB0020F7E701204042F6E7C04645
S31581703C101B087381034B00221A60034B1A68034B8E
S31581703C201A60704724D07381FCCF738114D07381ED
S31581703C30064B1A68064B1A60064B1A68064B1A6051
S31581703C40064B1A68064B1A607047C0460CD0738152
S31581703C5010D0738124D0738128D0738114D07381ED
S31581703C6018D07381064B1A68064B1A60064B1A6810
S31581703C70064B1A60064B1A68064B1A607047C04627
S31581703C8010D073810CD0738128D0738124D07381C5
S31581703C9018D0738114D073814B4608B50BF064FBD1
S31581703CA0002804D00BF03AFB04BC914600BD01207C
S31581703CB04042F9E7F0B5CE46214C0600002500B5A5
S31581703CC0A54401A8029169460EF072F80400A842D3
S31581703CD02DD18027FF006A46390004A80EF03EF97F
S31581703CE0021E1DDC68460EF025FA164900200EF07C
S31581703CF047FA21001F231F313000994327F06CF852
S31581703D0022002100104823F07DFA21000F4804F02B
S31581703D10E7FE30008223DB009D4404BC9146F0BDF2
S31581703D20A81904A9A418AD1827F026F9D3E7009825
S31581703D302C000EF05DFA0100054823F063FAD1E795
S31581703D40F0FBFFFF993C7081DF3373810734738198
S31581703D50F1417381044B1B68002B04D1034A1368AC
S31581703D60591C18701160704724D0738114D0738177
S31581703D70074B002201331978002905D110063F239C
S31581703D80800F80181840704701335218F3E7C04688
S31581703D90E4CF73810C4B30B5CE4600B51C68002CD0
S31581703DA008DC0023094A5C1CD05C002808D104BC5D
S31581703DB0914630BD064B013C18780BF0F7FAEEE769
S31581703DC00BF0F4FA2300EDE704D07381E4CF7381AD
S31581703DD001D07381F0B501264C4CCE4676420023D4
S31581703DE000B5A54407900493039300254AAF7B19C8
S31581703DF005930BF093FA030604001B0E0693444B4E
S31581703E001B68002B02D006980BF0D0FAFF231C405A
S31581703E10032C6DD059DC002C6AD0069B7B554B46A2
S31581703E209A6E3C4B52689A426AD17B1C81225B198D
S31581703E30013592009542D9D100221A704AAA9B1AED
S31581703E404CE00138082818D827F00EF805050517B3
S31581703E50171728282800099A0AA9079B9C18089A77
S31581703E60200027F089F8A64200D92600089B013BDD
S31581703E701C19039BA34200D20394254B1B68002B0C
S31581703E80B3D1049B642101331800049327F054F84D
S31581703E900029AAD12E200BF089FAA6E71E4822F0B6
S31581703EA02DFB039B3100039A1C485C1CA41B2300C9
S31581703EB0009423F0A7F92100300026F08DFF2100B0
S31581703EC0174804F00DFE099814E00A2C01D00D2CC8
S31581703ED0A3D1059A002313704AABD31A002B07DB43
S31581703EE00AAB09AA08A938000DF0BAFD0028A8DA2C
S31581703EF001204042CC239B009D4404BC9146F0BD79
S31581703F000BF0F0FA002800D18FE7F1E7D0FCFFFFC4
S31581703F1044AF73811DF37081102700007A337381EA
S31581703F2007347381F0B5CE4600B51D0016001E4864
S31581703F3004F000FF1D4B00282CD00278312A29D13C
S31581703F40303A1A600024022E05D121001022686849
S31581703F5023F045FA04001648FA2623F053F9200017
S31581703F60B600FFF737FF642405000BF0FDF90028D2
S31581703F7001D00BF0D3F93000013C22F0BFFA002C4E
S31581703F80F3D16B1C08D10B4823F03CF9012004BC9A
S31581703F909146F0BD0022D4E72900074823F032F913
S31581703FA0064B20001D60F2E77208738144AF7381FE
S31581703FB07D087381A1087381BF087381A4B97381E8
S31581703FC0F0B5CE4600B586B014001D00B94804F030
S31581703FD0B1FE00285DD01022002123F0ADF9019049
S31581703FE04B469B6803930293012C27DD1022002197
S31581703FF0686823F0A1F9039B01900293032C1DD16C
S315817040000A220021A86823F097F90290002844D0EB
S31581704010039B834212D00100A74823F0F3F8A74887
S3158170402022F06CFA029A4B469A6014F026FAA348EB
S3158170403022F064FA0BF072F90D28FBD1A049286839
S3158170404022F046F9041E2BD10199029A9D4823F0DC
S31581704050D9F802210198FFF72DFE039B029A9342AC
S3158170406012D01900984823F0CDF8944822F046FA78
S31581704070039A4B469A6014F000FA904822F03EFA01
S315817040800BF04CF91B28FBD1200006B004BC91467D
S31581704090F0BD81231B060193A2E7039B0293CDE7B3
S315817040A08A49286822F014F9029A041E019904D16A
S315817040B0874823F0A7F80121CCE78648002423F0AE
S315817040C0A1F8854B019A1A60844B854A1A60854B93
S315817040D0854A1A600D22854B1A701632844B1C6084
S315817040E0844B1C70844B1A70844B1C60FFF792FD55
S315817040F0FFF79EFD0094013C814B824A1A600BF05A
S315817041000DF9012807D00328F9D10025A7E1009B75
S31581704110009C0093F0E7E0250BF000F90600284239
S315817041204DD00BF0FBF8284249D0FF23184002008E
S315817041300700203A05921A400092A2425AD1FFF79F
S3158170414091FD0BF0EBF8E0220490104200D18AE0E9
S31581704150FF252E402840F719203E2E40C719023E72
S31581704160B31C00D09FE00BF0D9F8E0230600009CC9
S31581704170184224D00BF0D2F8E023009C18421ED04E
S315817041802E402840BF19203E3F1820382E405F228E
S315817041901300734306002E409E190BF0BFF8E0237F
S315817041A00206120E054018425DD03B063F219B0FD9
S315817041B0009CDB197F190B4020339A4273D0FFF72D
S315817041C051FD514D012300262B7022336B70009B5C
S315817041D02E712033AB704E23EB70FFF7C9FD434BC5
S315817041E020302871AE711B786B71FFF7D3FD009B00
S315817041F000948DE7FFF71CFDA3E70BF08FF80300A2
S31581704200E02100061A00000E22400B422BD0049B3F
S31581704210BF18013E442B39D1384B1A68002A2BD0EE
S31581704220304B1A6860230340402B1ED198439047C8
S31581704230324B00221A60012EDFDC0BF06FF8E0231F
S31581704240184210D03D060006AD0F000EEF193F25BE
S315817042502F40009C2037B842B1D10BF05FF8000631
S31581704260000E0D2852D0009CA9E77F2303403F2B77
S31581704270DDD101331843DAE71F4A1278824201D1C0
S315817042800122D7E7174B1B689847D4E7049B532BBA
S31581704290D1D11B4B1B491A681431551C10701D6086
S315817042A08D42C8D3C6E7049BFF241B061B0E04935D
S315817042B0C1E7C046DD087381E608738150C300008B
S315817042C0180973811E097381060A73815D09738169
S315817042D063097381A2097381FCCF738120D0738145
S315817042E0153C70811CD07381553D708100D073816E
S315817042F004D0738101D0738108D073810CD073819E
S3158170430040D073812CD07381E4CF73810599049BDE
S31581704310694E20310906090E532B00D083E0674A16
S315817043200023307066481360664A13702322664B89
S315817043301A700200654B13321C68944202D10200D6
S3158170434012321A601B6803241B1A002B4BDD604DD9
S315817043507E2201342A71012B45D05D3A01346A710E
S31581704360022B40D08278554C203A1206120E22606A
S315817043702022AA710624032B35D0C2786020104082
S31581704380402849D182434F48072402704020504AC1
S31581704390D071042B27D04A4D474C2879203820700C
S315817043A02D2010720824052B1DD06C794648047017
S315817043B0232050720924062B15D02B30013490722C
S315817043C0072B10D02734D472263C082B0BD0107350
S315817043D00134092B07D0222304345373023B937320
S315817043E05E33D37313743A4D0123671C00262B7089
S315817043F023002033A9706B705923EB702C19EE55FD
S31581704400FFF7B6FC2C4B2030E855E6701B78A3700D
S31581704410FFF7C0FC009CEAE67F2010403F28B2D1AE
S3158170442001300243AFE72A4C0123002523702233E2
S3158170443063703633A170E3702571FFF799FC337819
S3158170444020302071A5716371FFF7A4FC049B422B08
S3158170445000D05CE61F4B1D681F4B1B68ED1AFA2650
S315817044606424B6000AF080FF002801D00AF056FF56
S315817044703000013C22F042F8002CF3D129000198DA
S3158170448026F0AAFC2A002900144822F0BBFE2900D6
S31581704490134804F025FB019B124D013305D1124857
S315817044A02C60013422F0AEFED7E501990F4822F0D7
S315817044B0A9FE019B2B60D0E500D0738104D07381F6
S315817044C02CD0738101D0738108D0738140D0738170
S315817044D0E4CF738114D07381FCCF7381DF337381A1
S315817044E007347381A4B97381E1097381BF087381BC
S315817044F0F0B5CE461E001300033B00B582B0009224
S31581704500012B32D80421012430680DF00DFA051E75
S315817045101BDD10220021706822F00EFF144B1022D1
S3158170452000211B68C318B068019322F005FF009BB8
S3158170453007002000042B04D110220021F06822F09C
S31581704540FBFE019B013805D20024200002B004BC19
S315817045509146F0BD042D02D11F605B19F2E7022DE1
S3158170456001D11F80F9E71F70F7E701246442ECE7F8
S3158170457044D07381F0B5CE4600B51E00022A35DD72
S31581704580042118680DF0D0F9051E34DB1022002144
S31581704590706822F0D1FE102204000021B06822F0EA
S315817045A0CBFE012809D1042D01D12368FDE7022DA7
S315817045B001D12388FDE72378FDE7042D06D12200FA
S315817045C00300013BFBD311680432FAE72218022DEE
S315817045D006D122000300013BFBD311880232FAE730
S315817045E023009342FCD019780133FAE701204042C7
S315817045F004BC9146F0BD0120FAE70000F0B51F00BA
S31581704600234BCE4600B584B01B6803920293012A70
S315817046103BDD012421400E1E1DD01E4B1C681E4B96
S315817046201D682900102026F0F7FB029B2A00009056
S3158170463021002000029E21F07FFC6E43154BA41948
S31581704640029A00201C60124B1A60134B1D6004B0D5
S3158170465004BC9146F0BD042138680DF065F90500FA
S315817046602000002DF3DB10223100786822F064FE81
S315817046700A4B1C68039B0419022BD2D0102231007D
S31581704680B86822F059FE0290CBE701204042DEE7FE
S3158170469048AF738148D073814CD0738144D0738114
S315817046A0F0B5CE4600B51F0088B0042A5AD11100E4
S315817046B0012618680DF038F9041E43DB2B4D082846
S315817046C006D02B4D042803D02A4D022800D02A4DBE
S315817046D010220021786822F02FFE284E10220021A8
S315817046E03368C318B868079322F026FE366810229D
S315817046F000218619F86822F01FFE079B02000027A9
S31581704700F11A8C4661465818974201D1002614E0F9
S31581704710042C1CD119680068814220D0079A0490B4
S31581704720009129009B1A0394D218F31801260293DB
S3158170473001952300124822F065FD2A00390011483F
S3158170474022F060FD300008B004BC9146F0BD022CA9
S3158170475002D119880088DFE719780078DCE71B19A0
S315817047600137CFE701267642ECE7C0464D0A738161
S31581704770540A73815E0A7381590A738144D0738135
S31581704780670A7381990A738130B5CE4600B5084C34
S31581704790012A05DD10220021586822F0CDFD2060A6
S315817047A02168044822F02EFD002004BC914630BD5C
S315817047B044D07381360A7381F0B5CE4600B51C003C
S315817047C084B0042A32D11100012518680DF0ACF835
S315817047D0071E19DB10220021606822F0ADFD154E8F
S315817047E0102202900021A0683368019322F0A4FD03
S315817047F0102203900021E068366822F09DFD002822
S3158170480007D10D480AF0FCFD280004B004BC91461E
S31581704810F0BD02007A430298019B00258446634469
S315817048201900039BF01826F0A7FBEDE701256D4271
S31581704830EAE7C04644D07381BB0A7381F0B5CE4630
S3158170484000B5060082B01F00022A4FD101250D40A6
S315817048501ED02C4B1D682C4B1C6829002B482700B9
S3158170486022F0D0FC042C24D12968294822F0CAFC74
S3158170487028480AF05DFC002806D0274F012820D1F0
S315817048803B782D2B1DD16742002EE6D0ED19E4E7DA
S31581704890042118680DF048F804000120002C27DBEC
S315817048A029001022786822F047FD1C4B1D68451936
S315817048B0D3E7022C02D129881948D7E72978194874
S315817048C0D4E7102201A9380022F036FD019BBB4244
S315817048D012D0042C04D12860002EBED02D19BCE7CD
S315817048E0022C01D12880F7E72870F5E70120404234
S315817048F002B004BC9146F0BD024B00201D60024B94
S315817049001C60F5E750D0738154D073813E397381C1
S31581704910453973815739738108DD738144D07381C9
S315817049204B3973815139738190B5CE4600B501206B
S31581704930FFF784FF04BC914690BD90B5CE4600B515
S315817049400020FFF77BFF04BC914690BD37B50D0003
S31581704950140001A9102222F0EFFC019B0006000EC3
S3158170496028701A782D2A05D1581C1D3A002101907C
S3158170497022F0E2FC207037BDF0B516009BB01D00A9
S31581704980012A04DC01277F4238001BB0F0BDD04B71
S3158170499016AC10A801270F401A78227010AA5B787E
S315817049A06370CC4B1B689374CB4B1B68D374CB4BA6
S315817049B01A6815AB1A70CA4B1A6815231B181A70A8
S315817049C0C84B1A681A231B181A80C74B18680304B8
S315817049D01B0C0693002F35D16B6868681B78237022
S315817049E021F0A0FC012837D96B685B786370022E41
S315817049F028D010AA13239B1810A91A0012235B18AA
S31581704A00A8681900FFF7A2FF032E1BD0152210ABE1
S31581704A10D21815A9E868FFF799FF042E12D01022D3
S31581704A200021286922F088FC1A2310AA9B18188005
S31581704A30052E07D010220021686922F07DFC0304BF
S31581704A401B0C069310AB1327FF183B781F2B05D9C8
S31581704A50A64822F0D7FB95E76770C8E707F080FA1A
S31581704A6023780590692B68D1022E2BD010AB3D78B7
S31581704A709C7CAC4229D9002716AA954B117819705E
S31581704A8052785A7010AA12239B181A78914B1A6011
S31581704A9010AA13239B181A788F4B1A6015AB1A7844
S31581704AA08E4B1A6010AA15239B181A788C4B1A6034
S31581704AB010AA1A239B181A888A4B1A608A4B069AEF
S31581704AC01A6061E71F250024D3E710AB16271726D6
S31581704AD0FF18F61817AA00963B002100059807F073
S31581704AE0A7FA002825D1179B2100059807933B7853
S31581704AF008933378099307F0CFFA21000700059858
S31581704B0007F05CFB7A4E002800D07A4E210005981A
S31581704B1007F00CFB784B2C2800D1784B039321003E
S31581704B20099B029601970093079A089B744822F015
S31581704B3069FB01342406240E9BE7722B54D110AB8A
S31581704B4000279C7C15AB10AA1D7813239B181B78A4
S31581704B50A34217D290E710AB1A26F61801235B424F
S31581704B602A00338021003300059807F003FA002864
S31581704B7021D001272A002100624822F043FB0135AA
S31581704B802D062D0E10AB5B7DAB42E4D210A912229D
S31581704B90521810A81178132212181278914206D0E1
S31581704BA015AA12789A4202D0574822F02BFB01340B
S31581704BB02406240EC6E710AA12239B1810A91A7808
S31581704BC013235B181B789A4204D115AB1A784B7DE7
S31581704BD09A4204D02A0021004C4822F013FB318876
S31581704BE04B4822F00FFBCAE7772B2AD110AB0027EF
S31581704BF09C7C012615AB10AA1D7813239B181B78F4
S31581704C00A34210D238E72A002100059807F0CBF924
S31581704C10002805D037002A0021003E4822F0F2FA9A
S31581704C2001352D062D0E10AA1A239B1810A915224F
S31581704C301B8852181278AA42E5D201342406240EB2
S31581704C40D8E76D2B70D110AB00279C7C15AB10AA61
S31581704C501D7813239B181B78A3421AD20CE717AEC3
S31581704C60002333802A0033002100059807F082F9EA
S31581704C70002818D0284822F0C5FA01272100274834
S31581704C8022F0C0FA2900264822F0BCFA01352D0699
S31581704C902D0E152310AA9B181B78AB42DFD20134D7
S31581704CA02406240ED2E7338810A9069A0598934371
S31581704CB01A225218069912880A40210013432A0033
S31581704CC0338007F070F90028E0D01648D3E7C046E4
S31581704CD068D073815CD0738158D0738170D0738141
S31581704CE06CD0738160D0738164D07381FF0A738154
S31581704CF0F90A7381F1017381D00A7381CC0A738148
S31581704D002C0B7381730B7381303E7381A20B73810C
S31581704D10BB0B7381C10B7381EE0B7381090C73812C
S31581704D20970B7381140C738102228B49200021F0B9
S31581704D30DCFA002800D0FEE015AB1B78052B05D870
S31581704D40152310AA9B181B78052B04D98348012734
S31581704D5022F058FA18E610AB07009D7C01230C935C
S31581704D6015AB10AA1C7813239B181B78AB4215D2EE
S31581704D7082E617AA6300D31829002200059807F0E6
S31581704D80F9F8002807D0220029007548012722F0FA
S31581704D9039FA00230C9301342406240E152310AAA4
S31581704DA09B181B780B93A342E3D20C9B002B06D1E5
S31581704DB001356C482D0622F025FA2D0ED0E715ABFC
S31581704DC01B78109300230793109B079A934233D8CD
S31581704DD00B9B934230D3530017AA9E5A079B624806
S31581704DE0DB000A930A9A614BD25A08920A9A0899F9
S31581704DF09B1832005B6822F005FA331201221A4041
S31581704E005B4B0E920F9301D05A4B0F93B3090122CC
S31581704E101A40730B119201221A40574B12920A9AB9
S31581704E209B18139300230993139B099A9B889A4223
S31581704E3008D34C4822F0E6F9079B01330793062B7A
S31581704E40C2D1B5E7099A0C230A9953434A4A4B480A
S31581704E508C58E4186388A18899400B000904334003
S31581704E60090C0D930D9A089B22F0CCF9089B6088EA
S31581704E70002B25D106281AD18122414B92013240CD
S31581704E80402A05D080213F4B89018A4200D13E4B11
S31581704E9001930D22129B06213C480093119B22F0AF
S31581704EA0B1F9304822F0AEF9099B0133BBE7082886
S31581704EB02DD101000F9B0E9A354822F0A3F9F0E7A8
S31581704EC0089B2188042B10D1002820D1A388314AD0
S31581704ED03340012B03D0304A022B00D12F4A304800
S31581704EE00092002222F08EF9DBE7089B052B0ED10A
S31581704EF000280CD1A388274A3340012B03D0264A38
S31581704F00022B00D1254A009200222648EAE72188A1
S31581704F1081420BD10100244822F074F963880D997E
S31581704F20A2682248194122F06DF9BAE70200204839
S31581704F3022F068F9F2E702221E49200021F0D5F9A4
S31581704F40071E00D01EE5022E02D107F045F893E5C3
S31581704F50A86806F0D1FF8FE52D0C7381300C7381B3
S31581704F60730B7381303E7381740C7381B4BB7281A0
S31581704F70A30C73819E0C738194B67281A80C738114
S31581704F807B857381D80A7381D40A7381BB0C7381D3
S31581704F90EA0C7381DB0A7381FB0A7381E60A73817A
S31581704FA0060D7381250D7381470D7381560D73813E
S31581704FB04E0D7381A92F7381F7B5170001901E006D
S31581704FC00D000A225868013F13490CF031FA331DDE
S31581704FD0041E00931DD04368BB421ADB012D02D19A
S31581704FE08068002814D00D4E3368002B05DA12F0D4
S31581704FF013F8002808DD00233360E4683A00009BCB
S3158170500029000198A04703E005480AF0F9F90120C3
S31581705010FEBD01204042FBE74CAF738164B0738162
S315817050203311738170B505000E0011F0A5FF041E52
S3158170503005D12900084822F0E5F8200070BD002EC0
S3158170504001D000234361200011F008FF434258418B
S3158170505040420440F1E7C046D12F7381044B012150
S3158170506010B51868FFF7DEFF4342584110BDC04640
S3158170507064B07381F0B595B0029200212C2209A893
S315817050800493012425F070FFBB4B00211868FFF74C
S31581705090C9FF0690002808D0002325000193029B42
S315817050A0002B00DDE6E001246442200015B0F0BDDE
S315817050B0049BAE00B1499F19386821F009F9041E25
S315817050C057D16B1C043607930100079A09A8029B76
S315817050D09B1A0C220393049B9B19059325F044FF1D
S315817050E0039BA34202DC079B1D19C3E0059BA500A8
S315817050F0A3495E19306821F0EBF8071E11D1039A26
S31581705100A31C9A42CFDD01000A227068033422F013
S3158170511013F90A2209903900B06822F00DF90A90C4
S31581705120DEE79849306821F0D3F80028DBD1039AFD
S31581705130631C9A42B7DD09AE0122337A04359249EE
S3158170514013433372059B5D19286821F0C1F80028D5
S3158170515005D1337A0222134333720234C0E78B4905
S31581705160286821F0B5F800289DD1337A02229343BD
S31581705170F2E702228649386821F0B7F8041E71D1A8
S31581705180386821F0CFF803286CD13B689B781A0078
S31581705190313A05921206120E032A63D86A1C303B85
S315817051A00792DD00079909AB029A0436281D1818F3
S315817051B0521A21000392049A9619082225F0D4FE78
S315817051C0039B012B00DC6EE70A222100306822F0F6
S315817051D0B3F809AB5D1968600125AF006849F419A8
S315817051E0206821F075F800280FD1059B09AA012145
S315817051F06D180133DB00D3181A7A0A431A72039B2E
S315817052009D42EADB079B5D1934E05E49206821F097
S315817052105FF80028F6D1039A6B1C9A4200DC42E74C
S31581705220059B022204375849F7195C1C09ABE400C7
S3158170523038681C19237A1343237221F049F80028A0
S3158170524005D1237A0422134323720235D7E74F4956
S31581705250386821F03DF8002800D024E7237A0422AB
S315817052609343F1E74B49386821F032F8002861D1D0
S3158170527001350190029B9D4200DA19E7464809ADD6
S315817052800AF0BEF86B68002B68D044480AF0B8F80B
S31581705290434C09982200C10D400220F0E3FD41483C
S315817052A00AF0AEF868682200C10D400220F0DAFD7E
S315817052B02B7ADA0706D535499B0700D532493A48A4
S315817052C021F0A0FF0024E700661CEB193100DB6832
S315817052D0002B47D03548EF1921F094FFF300F86819
S315817052E0EB182F4A1B7AC10D4002DB0700D5304A75
S315817052F020F0B8FD0134E4002C19237A9A0707D57A
S31581705300224A5B0700D5204A31002A4821F07AFF6C
S315817053103400042ED7D1019A2900069810F0EEFD3B
S31581705320041E23D1019B022B00D0BEE622480AF0CF
S3158170533067F8BAE62149386820F0CAFF002803D198
S3158170534001350123019395E71D49386820F0C0FF27
S31581705350002800D0A7E601350223F3E719480AF041
S315817053604FF8A5E7184821F04DFFC3E71748012488
S315817053700AF046F899E6C04664B07381500E73811F
S31581705380550E7381590E7381078A7381EEF472811A
S315817053905F0E73815B2F7381620E73817C0E738155
S315817053A0303E7381930E7381C60E7381ED0E738158
S315817053B04A0E7381120F73812F0F7381482F7381F8
S315817053C0EC697381A90E7381FE0E7381670F738188
S315817053D010B50A2011F04EFE002010BDF8B51D00E3
S315817053E0012A23D1274B1C68002601212000FFF753
S315817053F019FE071E37D032002100062010F074FB8B
S31581705400214A051E00D0214A3100214821F0FAFE39
S31581705410002D28D11B4B1C603B0061331B78FF2B01
S3158170542024D121001B4821F0EDFE1DE0022A06D110
S3158170543008320021586821F07FFF0400D4E7032ADF
S315817054401DD107320021586821F076FF0A220400A7
S315817054500021A86821F070FF06000728C5DD0721A5
S315817054600D4821F0CFFE01252800F8BD380011F0D6
S31581705470D1FD2100C27A094821F0C4FEF4E70125E5
S315817054806D42F1E764B0738152D4728155D4728161
S315817054908A0D7381A80D7381630D7381C10D7381BB
S315817054A0F7B51C00042A35D10C320021586821F0D9
S315817054B043FF102201900021A06821F03DFF102248
S315817054C000210500E06821F037FF144F04000021A8
S315817054D03868FFF7A7FD06000120002E19D02A0033
S315817054E0230039680E4821F08DFE300011F092FD4F
S315817054F022002900866F019BB0470A4A05008442C3
S3158170550000D0094A2900094821F07CFE601B441E9F
